{
  "contractName": "NftMarket",
  "abi": [
    {
      "inputs": [],
      "stateMutability": "nonpayable",
      "type": "constructor"
    },
    {
      "anonymous": false,
      "inputs": [
        {
          "indexed": true,
          "internalType": "address",
          "name": "owner",
          "type": "address"
        },
        {
          "indexed": true,
          "internalType": "address",
          "name": "approved",
          "type": "address"
        },
        {
          "indexed": true,
          "internalType": "uint256",
          "name": "tokenId",
          "type": "uint256"
        }
      ],
      "name": "Approval",
      "type": "event"
    },
    {
      "anonymous": false,
      "inputs": [
        {
          "indexed": true,
          "internalType": "address",
          "name": "owner",
          "type": "address"
        },
        {
          "indexed": true,
          "internalType": "address",
          "name": "operator",
          "type": "address"
        },
        {
          "indexed": false,
          "internalType": "bool",
          "name": "approved",
          "type": "bool"
        }
      ],
      "name": "ApprovalForAll",
      "type": "event"
    },
    {
      "anonymous": false,
      "inputs": [
        {
          "indexed": false,
          "internalType": "uint256",
          "name": "tokenId",
          "type": "uint256"
        },
        {
          "indexed": false,
          "internalType": "uint256",
          "name": "price",
          "type": "uint256"
        },
        {
          "indexed": false,
          "internalType": "address",
          "name": "crator",
          "type": "address"
        },
        {
          "indexed": false,
          "internalType": "bool",
          "name": "isListed",
          "type": "bool"
        }
      ],
      "name": "NftItemCreated",
      "type": "event"
    },
    {
      "anonymous": false,
      "inputs": [
        {
          "indexed": true,
          "internalType": "address",
          "name": "previousOwner",
          "type": "address"
        },
        {
          "indexed": true,
          "internalType": "address",
          "name": "newOwner",
          "type": "address"
        }
      ],
      "name": "OwnershipTransferred",
      "type": "event"
    },
    {
      "anonymous": false,
      "inputs": [
        {
          "indexed": true,
          "internalType": "address",
          "name": "from",
          "type": "address"
        },
        {
          "indexed": true,
          "internalType": "address",
          "name": "to",
          "type": "address"
        },
        {
          "indexed": true,
          "internalType": "uint256",
          "name": "tokenId",
          "type": "uint256"
        }
      ],
      "name": "Transfer",
      "type": "event"
    },
    {
      "inputs": [
        {
          "internalType": "address",
          "name": "to",
          "type": "address"
        },
        {
          "internalType": "uint256",
          "name": "tokenId",
          "type": "uint256"
        }
      ],
      "name": "approve",
      "outputs": [],
      "stateMutability": "nonpayable",
      "type": "function"
    },
    {
      "inputs": [
        {
          "internalType": "address",
          "name": "owner",
          "type": "address"
        }
      ],
      "name": "balanceOf",
      "outputs": [
        {
          "internalType": "uint256",
          "name": "",
          "type": "uint256"
        }
      ],
      "stateMutability": "view",
      "type": "function"
    },
    {
      "inputs": [
        {
          "internalType": "uint256",
          "name": "tokenId",
          "type": "uint256"
        }
      ],
      "name": "getApproved",
      "outputs": [
        {
          "internalType": "address",
          "name": "",
          "type": "address"
        }
      ],
      "stateMutability": "view",
      "type": "function"
    },
    {
      "inputs": [
        {
          "internalType": "address",
          "name": "owner",
          "type": "address"
        },
        {
          "internalType": "address",
          "name": "operator",
          "type": "address"
        }
      ],
      "name": "isApprovedForAll",
      "outputs": [
        {
          "internalType": "bool",
          "name": "",
          "type": "bool"
        }
      ],
      "stateMutability": "view",
      "type": "function"
    },
    {
      "inputs": [],
      "name": "listingPrice",
      "outputs": [
        {
          "internalType": "uint256",
          "name": "",
          "type": "uint256"
        }
      ],
      "stateMutability": "view",
      "type": "function"
    },
    {
      "inputs": [],
      "name": "name",
      "outputs": [
        {
          "internalType": "string",
          "name": "",
          "type": "string"
        }
      ],
      "stateMutability": "view",
      "type": "function"
    },
    {
      "inputs": [],
      "name": "owner",
      "outputs": [
        {
          "internalType": "address",
          "name": "",
          "type": "address"
        }
      ],
      "stateMutability": "view",
      "type": "function"
    },
    {
      "inputs": [
        {
          "internalType": "uint256",
          "name": "tokenId",
          "type": "uint256"
        }
      ],
      "name": "ownerOf",
      "outputs": [
        {
          "internalType": "address",
          "name": "",
          "type": "address"
        }
      ],
      "stateMutability": "view",
      "type": "function"
    },
    {
      "inputs": [],
      "name": "renounceOwnership",
      "outputs": [],
      "stateMutability": "nonpayable",
      "type": "function"
    },
    {
      "inputs": [
        {
          "internalType": "address",
          "name": "from",
          "type": "address"
        },
        {
          "internalType": "address",
          "name": "to",
          "type": "address"
        },
        {
          "internalType": "uint256",
          "name": "tokenId",
          "type": "uint256"
        }
      ],
      "name": "safeTransferFrom",
      "outputs": [],
      "stateMutability": "nonpayable",
      "type": "function"
    },
    {
      "inputs": [
        {
          "internalType": "address",
          "name": "from",
          "type": "address"
        },
        {
          "internalType": "address",
          "name": "to",
          "type": "address"
        },
        {
          "internalType": "uint256",
          "name": "tokenId",
          "type": "uint256"
        },
        {
          "internalType": "bytes",
          "name": "data",
          "type": "bytes"
        }
      ],
      "name": "safeTransferFrom",
      "outputs": [],
      "stateMutability": "nonpayable",
      "type": "function"
    },
    {
      "inputs": [
        {
          "internalType": "address",
          "name": "operator",
          "type": "address"
        },
        {
          "internalType": "bool",
          "name": "approved",
          "type": "bool"
        }
      ],
      "name": "setApprovalForAll",
      "outputs": [],
      "stateMutability": "nonpayable",
      "type": "function"
    },
    {
      "inputs": [
        {
          "internalType": "bytes4",
          "name": "interfaceId",
          "type": "bytes4"
        }
      ],
      "name": "supportsInterface",
      "outputs": [
        {
          "internalType": "bool",
          "name": "",
          "type": "bool"
        }
      ],
      "stateMutability": "view",
      "type": "function"
    },
    {
      "inputs": [],
      "name": "symbol",
      "outputs": [
        {
          "internalType": "string",
          "name": "",
          "type": "string"
        }
      ],
      "stateMutability": "view",
      "type": "function"
    },
    {
      "inputs": [
        {
          "internalType": "uint256",
          "name": "tokenId",
          "type": "uint256"
        }
      ],
      "name": "tokenURI",
      "outputs": [
        {
          "internalType": "string",
          "name": "",
          "type": "string"
        }
      ],
      "stateMutability": "view",
      "type": "function"
    },
    {
      "inputs": [
        {
          "internalType": "address",
          "name": "from",
          "type": "address"
        },
        {
          "internalType": "address",
          "name": "to",
          "type": "address"
        },
        {
          "internalType": "uint256",
          "name": "tokenId",
          "type": "uint256"
        }
      ],
      "name": "transferFrom",
      "outputs": [],
      "stateMutability": "nonpayable",
      "type": "function"
    },
    {
      "inputs": [
        {
          "internalType": "address",
          "name": "newOwner",
          "type": "address"
        }
      ],
      "name": "transferOwnership",
      "outputs": [],
      "stateMutability": "nonpayable",
      "type": "function"
    },
    {
      "inputs": [
        {
          "internalType": "uint256",
          "name": "newPrice",
          "type": "uint256"
        }
      ],
      "name": "setListingPrice",
      "outputs": [],
      "stateMutability": "nonpayable",
      "type": "function"
    },
    {
      "inputs": [
        {
          "internalType": "uint256",
          "name": "tokenId",
          "type": "uint256"
        }
      ],
      "name": "getNftItem",
      "outputs": [
        {
          "components": [
            {
              "internalType": "uint256",
              "name": "tokenId",
              "type": "uint256"
            },
            {
              "internalType": "uint256",
              "name": "price",
              "type": "uint256"
            },
            {
              "internalType": "address",
              "name": "creator",
              "type": "address"
            },
            {
              "internalType": "bool",
              "name": "isListed",
              "type": "bool"
            }
          ],
          "internalType": "struct NftMarket.NftItem",
          "name": "",
          "type": "tuple"
        }
      ],
      "stateMutability": "view",
      "type": "function"
    },
    {
      "inputs": [],
      "name": "listedItemsCount",
      "outputs": [
        {
          "internalType": "uint256",
          "name": "",
          "type": "uint256"
        }
      ],
      "stateMutability": "view",
      "type": "function"
    },
    {
      "inputs": [
        {
          "internalType": "string",
          "name": "tokenURI",
          "type": "string"
        }
      ],
      "name": "tokenURIExists",
      "outputs": [
        {
          "internalType": "bool",
          "name": "",
          "type": "bool"
        }
      ],
      "stateMutability": "view",
      "type": "function"
    },
    {
      "inputs": [],
      "name": "totalSupply",
      "outputs": [
        {
          "internalType": "uint256",
          "name": "",
          "type": "uint256"
        }
      ],
      "stateMutability": "view",
      "type": "function"
    },
    {
      "inputs": [
        {
          "internalType": "uint256",
          "name": "index",
          "type": "uint256"
        }
      ],
      "name": "tokenByIndex",
      "outputs": [
        {
          "internalType": "uint256",
          "name": "",
          "type": "uint256"
        }
      ],
      "stateMutability": "view",
      "type": "function"
    },
    {
      "inputs": [
        {
          "internalType": "address",
          "name": "owner",
          "type": "address"
        },
        {
          "internalType": "uint256",
          "name": "index",
          "type": "uint256"
        }
      ],
      "name": "tokenOfOwnerByIndex",
      "outputs": [
        {
          "internalType": "uint256",
          "name": "",
          "type": "uint256"
        }
      ],
      "stateMutability": "view",
      "type": "function"
    },
    {
      "inputs": [],
      "name": "getAllNftsOfficial",
      "outputs": [
        {
          "components": [
            {
              "internalType": "uint256",
              "name": "tokenId",
              "type": "uint256"
            },
            {
              "internalType": "uint256",
              "name": "price",
              "type": "uint256"
            },
            {
              "internalType": "address",
              "name": "creator",
              "type": "address"
            },
            {
              "internalType": "bool",
              "name": "isListed",
              "type": "bool"
            }
          ],
          "internalType": "struct NftMarket.NftItem[]",
          "name": "",
          "type": "tuple[]"
        }
      ],
      "stateMutability": "view",
      "type": "function"
    },
    {
      "inputs": [],
      "name": "getAllNftsOnSale",
      "outputs": [
        {
          "components": [
            {
              "internalType": "uint256",
              "name": "tokenId",
              "type": "uint256"
            },
            {
              "internalType": "uint256",
              "name": "price",
              "type": "uint256"
            },
            {
              "internalType": "address",
              "name": "creator",
              "type": "address"
            },
            {
              "internalType": "bool",
              "name": "isListed",
              "type": "bool"
            }
          ],
          "internalType": "struct NftMarket.NftItem[]",
          "name": "",
          "type": "tuple[]"
        }
      ],
      "stateMutability": "view",
      "type": "function"
    },
    {
      "inputs": [],
      "name": "getOwnedNfts",
      "outputs": [
        {
          "components": [
            {
              "internalType": "uint256",
              "name": "tokenId",
              "type": "uint256"
            },
            {
              "internalType": "uint256",
              "name": "price",
              "type": "uint256"
            },
            {
              "internalType": "address",
              "name": "creator",
              "type": "address"
            },
            {
              "internalType": "bool",
              "name": "isListed",
              "type": "bool"
            }
          ],
          "internalType": "struct NftMarket.NftItem[]",
          "name": "",
          "type": "tuple[]"
        }
      ],
      "stateMutability": "view",
      "type": "function"
    },
    {
      "inputs": [
        {
          "internalType": "uint256",
          "name": "tokenId",
          "type": "uint256"
        }
      ],
      "name": "burnToken",
      "outputs": [],
      "stateMutability": "nonpayable",
      "type": "function"
    },
    {
      "inputs": [
        {
          "internalType": "string",
          "name": "tokenURI",
          "type": "string"
        },
        {
          "internalType": "uint256",
          "name": "price",
          "type": "uint256"
        }
      ],
      "name": "mintToken",
      "outputs": [
        {
          "internalType": "uint256",
          "name": "",
          "type": "uint256"
        }
      ],
      "stateMutability": "payable",
      "type": "function"
    },
    {
      "inputs": [
        {
          "internalType": "uint256",
          "name": "tokenId",
          "type": "uint256"
        }
      ],
      "name": "buyNft",
      "outputs": [],
      "stateMutability": "payable",
      "type": "function"
    },
    {
      "inputs": [
        {
          "internalType": "uint256",
          "name": "tokenId",
          "type": "uint256"
        },
        {
          "internalType": "uint256",
          "name": "newPrice",
          "type": "uint256"
        }
      ],
      "name": "placeNftOnSale",
      "outputs": [],
      "stateMutability": "payable",
      "type": "function"
    }
  ],
  "bytecode": "0x60806040526658d15e176280006008553480156200001c57600080fd5b506040518060400160405280600c81526020017f4372656174757265734e465400000000000000000000000000000000000000008152506040518060400160405280600481526020017f434e46540000000000000000000000000000000000000000000000000000000081525081600090816200009a91906200041d565b508060019081620000ac91906200041d565b505050620000cf620000c3620000d560201b60201c565b620000dd60201b60201c565b62000504565b600033905090565b6000600760009054906101000a900473ffffffffffffffffffffffffffffffffffffffff16905081600760006101000a81548173ffffffffffffffffffffffffffffffffffffffff021916908373ffffffffffffffffffffffffffffffffffffffff1602179055508173ffffffffffffffffffffffffffffffffffffffff168173ffffffffffffffffffffffffffffffffffffffff167f8be0079c531659141344cd1fd0a4f28419497f9722a3daafe3b4186f6b6457e060405160405180910390a35050565b600081519050919050565b7f4e487b7100000000000000000000000000000000000000000000000000000000600052604160045260246000fd5b7f4e487b7100000000000000000000000000000000000000000000000000000000600052602260045260246000fd5b600060028204905060018216806200022557607f821691505b6020821081036200023b576200023a620001dd565b5b50919050565b60008190508160005260206000209050919050565b60006020601f8301049050919050565b600082821b905092915050565b600060088302620002a57fffffffffffffffffffffffffffffffffffffffffffffffffffffffffffffffff8262000266565b620002b1868362000266565b95508019841693508086168417925050509392505050565b6000819050919050565b6000819050919050565b6000620002fe620002f8620002f284620002c9565b620002d3565b620002c9565b9050919050565b6000819050919050565b6200031a83620002dd565b62000332620003298262000305565b84845462000273565b825550505050565b600090565b620003496200033a565b620003568184846200030f565b505050565b5b818110156200037e57620003726000826200033f565b6001810190506200035c565b5050565b601f821115620003cd57620003978162000241565b620003a28462000256565b81016020851015620003b2578190505b620003ca620003c18562000256565b8301826200035b565b50505b505050565b600082821c905092915050565b6000620003f260001984600802620003d2565b1980831691505092915050565b60006200040d8383620003df565b9150826002028217905092915050565b6200042882620001a3565b67ffffffffffffffff811115620004445762000443620001ae565b5b6200045082546200020c565b6200045d82828562000382565b600060209050601f83116001811462000495576000841562000480578287015190505b6200048c8582620003ff565b865550620004fc565b601f198416620004a58662000241565b60005b82811015620004cf57848901518255600182019150602085019450602081019050620004a8565b86831015620004ef5784890151620004eb601f891682620003df565b8355505b6001600288020188555050505b505050505050565b614f9880620005146000396000f3fe6080604052600436106101d85760003560e01c80636f1a0af511610102578063a22cb46511610095578063c87b56dd11610064578063c87b56dd146106bb578063ccb4918d146106f8578063e985e9c514610723578063f2fde38b14610760576101d8565b8063a22cb4651461060e578063b88d4fde14610637578063c046372c14610660578063c78f19f914610690576101d8565b80637b47ec1a116100d15780637b47ec1a146105665780637c726b691461058f5780638da5cb5b146105b857806395d89b41146105e3576101d8565b80636f1a0af5146104aa57806370a08231146104e757806370cbcb4314610524578063715018a61461054f576101d8565b8063243adbdd1161017a57806342842e0e1161014957806342842e0e146103ca57806343d32ae7146103f35780634f6ccce7146104305780636352211e1461046d576101d8565b8063243adbdd1461031b5780632f745c591461033757806336b536be14610374578063395e3a081461039f576101d8565b8063095ea7b3116101b6578063095ea7b31461028257806318160ddd146102ab57806321f422e5146102d657806323b872dd146102f2576101d8565b806301ffc9a7146101dd57806306fdde031461021a578063081812fc14610245575b600080fd5b3480156101e957600080fd5b5061020460048036038101906101ff919061348e565b610789565b60405161021191906134d6565b60405180910390f35b34801561022657600080fd5b5061022f61086b565b60405161023c9190613581565b60405180910390f35b34801561025157600080fd5b5061026c600480360381019061026791906135d9565b6108fd565b6040516102799190613647565b60405180910390f35b34801561028e57600080fd5b506102a960048036038101906102a4919061368e565b610943565b005b3480156102b757600080fd5b506102c0610a5a565b6040516102cd91906136dd565b60405180910390f35b6102f060048036038101906102eb91906136f8565b610a67565b005b3480156102fe57600080fd5b5061031960048036038101906103149190613738565b610be3565b005b610335600480360381019061033091906135d9565b610c43565b005b34801561034357600080fd5b5061035e6004803603810190610359919061368e565b610dab565b60405161036b91906136dd565b60405180910390f35b34801561038057600080fd5b50610389610e50565b60405161039691906138bc565b60405180910390f35b3480156103ab57600080fd5b506103b4610fea565b6040516103c191906138bc565b60405180910390f35b3480156103d657600080fd5b506103f160048036038101906103ec9190613738565b6111da565b005b3480156103ff57600080fd5b5061041a60048036038101906104159190613a13565b6111fa565b60405161042791906134d6565b60405180910390f35b34801561043c57600080fd5b50610457600480360381019061045291906135d9565b611236565b60405161046491906136dd565b60405180910390f35b34801561047957600080fd5b50610494600480360381019061048f91906135d9565b6112a7565b6040516104a19190613647565b60405180910390f35b3480156104b657600080fd5b506104d160048036038101906104cc91906135d9565b61132d565b6040516104de9190613ab1565b60405180910390f35b3480156104f357600080fd5b5061050e60048036038101906105099190613acc565b6113df565b60405161051b91906136dd565b60405180910390f35b34801561053057600080fd5b50610539611496565b60405161054691906138bc565b60405180910390f35b34801561055b57600080fd5b506105646115fa565b005b34801561057257600080fd5b5061058d600480360381019061058891906135d9565b61160e565b005b34801561059b57600080fd5b506105b660048036038101906105b191906135d9565b61161a565b005b3480156105c457600080fd5b506105cd61166f565b6040516105da9190613647565b60405180910390f35b3480156105ef57600080fd5b506105f8611699565b6040516106059190613581565b60405180910390f35b34801561061a57600080fd5b5061063560048036038101906106309190613b25565b61172b565b005b34801561064357600080fd5b5061065e60048036038101906106599190613c06565b611741565b005b61067a60048036038101906106759190613c89565b6117a3565b60405161068791906136dd565b60405180910390f35b34801561069c57600080fd5b506106a56118b3565b6040516106b291906136dd565b60405180910390f35b3480156106c757600080fd5b506106e260048036038101906106dd91906135d9565b6118b9565b6040516106ef9190613581565b60405180910390f35b34801561070457600080fd5b5061070d6119cb565b60405161071a91906136dd565b60405180910390f35b34801561072f57600080fd5b5061074a60048036038101906107459190613ce5565b6119dc565b60405161075791906134d6565b60405180910390f35b34801561076c57600080fd5b5061078760048036038101906107829190613acc565b611a70565b005b60007f80ac58cd000000000000000000000000000000000000000000000000000000007bffffffffffffffffffffffffffffffffffffffffffffffffffffffff1916827bffffffffffffffffffffffffffffffffffffffffffffffffffffffff1916148061085457507f5b5e139f000000000000000000000000000000000000000000000000000000007bffffffffffffffffffffffffffffffffffffffffffffffffffffffff1916827bffffffffffffffffffffffffffffffffffffffffffffffffffffffff1916145b80610864575061086382611af3565b5b9050919050565b60606000805461087a90613d54565b80601f01602080910402602001604051908101604052809291908181526020018280546108a690613d54565b80156108f35780601f106108c8576101008083540402835291602001916108f3565b820191906000526020600020905b8154815290600101906020018083116108d657829003601f168201915b5050505050905090565b600061090882611b5d565b6004600083815260200190815260200160002060009054906101000a900473ffffffffffffffffffffffffffffffffffffffff169050919050565b600061094e826112a7565b90508073ffffffffffffffffffffffffffffffffffffffff168373ffffffffffffffffffffffffffffffffffffffff16036109be576040517f08c379a00000000000000000000000000000000000000000000000000000000081526004016109b590613df7565b60405180910390fd5b8073ffffffffffffffffffffffffffffffffffffffff166109dd611ba8565b73ffffffffffffffffffffffffffffffffffffffff161480610a0c5750610a0b81610a06611ba8565b6119dc565b5b610a4b576040517f08c379a0000000000000000000000000000000000000000000000000000000008152600401610a4290613e89565b60405180910390fd5b610a558383611bb0565b505050565b6000600980549050905090565b3373ffffffffffffffffffffffffffffffffffffffff16610a87836112a7565b73ffffffffffffffffffffffffffffffffffffffff1614610add576040517f08c379a0000000000000000000000000000000000000000000000000000000008152600401610ad490613ef5565b60405180910390fd5b60001515600d600084815260200190815260200160002060020160149054906101000a900460ff16151514610b47576040517f08c379a0000000000000000000000000000000000000000000000000000000008152600401610b3e90613f87565b60405180910390fd5b6008543414610b8b576040517f08c379a0000000000000000000000000000000000000000000000000000000008152600401610b8290614019565b60405180910390fd5b6001600d600084815260200190815260200160002060020160146101000a81548160ff02191690831515021790555080600d600084815260200190815260200160002060010181905550610bdf600a611c69565b5050565b610bf4610bee611ba8565b82611c7f565b610c33576040517f08c379a0000000000000000000000000000000000000000000000000000000008152600401610c2a906140ab565b60405180910390fd5b610c3e838383611d14565b505050565b6000600d60008381526020019081526020016000206001015490506000610c69836112a7565b90508073ffffffffffffffffffffffffffffffffffffffff163373ffffffffffffffffffffffffffffffffffffffff1603610cd9576040517f08c379a0000000000000000000000000000000000000000000000000000000008152600401610cd090614117565b60405180910390fd5b813414610d1b576040517f08c379a0000000000000000000000000000000000000000000000000000000008152600401610d1290614183565b60405180910390fd5b6000600d600085815260200190815260200160002060020160146101000a81548160ff021916908315150217905550610d54600a61200d565b610d5f813385611d14565b8073ffffffffffffffffffffffffffffffffffffffff166108fc349081150290604051600060405180830381858888f19350505050158015610da5573d6000803e3d6000fd5b50505050565b6000610db6836113df565b8210610df7576040517f08c379a0000000000000000000000000000000000000000000000000000000008152600401610dee906141ef565b60405180910390fd5b600e60008473ffffffffffffffffffffffffffffffffffffffff1673ffffffffffffffffffffffffffffffffffffffff168152602001908152602001600020600083815260200190815260200160002054905092915050565b60606000610e5c610a5a565b9050600080610e6b600a612069565b67ffffffffffffffff811115610e8457610e836138e8565b5b604051908082528060200260200182016040528015610ebd57816020015b610eaa613385565b815260200190600190039081610ea25790505b50905060005b83811015610fe0576000610ed682611236565b90506000600d60008381526020019081526020016000209050600115158160020160149054906101000a900460ff16151503610fcb578060405180608001604052908160008201548152602001600182015481526020016002820160009054906101000a900473ffffffffffffffffffffffffffffffffffffffff1673ffffffffffffffffffffffffffffffffffffffff1673ffffffffffffffffffffffffffffffffffffffff1681526020016002820160149054906101000a900460ff161515151581525050848681518110610fb057610faf61420f565b5b6020026020010181905250600185610fc8919061426d565b94505b50508080610fd8906142a1565b915050610ec3565b5080935050505090565b60606000610ff6610a5a565b9050600080611005600a612069565b67ffffffffffffffff81111561101e5761101d6138e8565b5b60405190808252806020026020018201604052801561105757816020015b611044613385565b81526020019060019003908161103c5790505b50905060005b838110156111d057600061107082611236565b9050600061107d826112a7565b905073501af74bdd5f8296ec1367a4e3d7f581c4dedce473ffffffffffffffffffffffffffffffffffffffff168173ffffffffffffffffffffffffffffffffffffffff16036111bb576000600d60008481526020019081526020016000209050600115158160020160149054906101000a900460ff161515036111b9578060405180608001604052908160008201548152602001600182015481526020016002820160009054906101000a900473ffffffffffffffffffffffffffffffffffffffff1673ffffffffffffffffffffffffffffffffffffffff1673ffffffffffffffffffffffffffffffffffffffff1681526020016002820160149054906101000a900460ff16151515158152505085878151811061119e5761119d61420f565b5b60200260200101819052506001866111b6919061426d565b95505b505b505080806111c8906142a1565b91505061105d565b5080935050505090565b6111f583838360405180602001604052806000815250611741565b505050565b600060011515600c836040516112109190614325565b908152602001604051809103902060009054906101000a900460ff161515149050919050565b6000611240610a5a565b8210611281576040517f08c379a0000000000000000000000000000000000000000000000000000000008152600401611278906141ef565b60405180910390fd5b600982815481106112955761129461420f565b5b90600052602060002001549050919050565b6000806112b383612077565b9050600073ffffffffffffffffffffffffffffffffffffffff168173ffffffffffffffffffffffffffffffffffffffff1603611324576040517f08c379a000000000000000000000000000000000000000000000000000000000815260040161131b90614388565b60405180910390fd5b80915050919050565b611335613385565b600d600083815260200190815260200160002060405180608001604052908160008201548152602001600182015481526020016002820160009054906101000a900473ffffffffffffffffffffffffffffffffffffffff1673ffffffffffffffffffffffffffffffffffffffff1673ffffffffffffffffffffffffffffffffffffffff1681526020016002820160149054906101000a900460ff1615151515815250509050919050565b60008073ffffffffffffffffffffffffffffffffffffffff168273ffffffffffffffffffffffffffffffffffffffff160361144f576040517f08c379a00000000000000000000000000000000000000000000000000000000081526004016114469061441a565b60405180910390fd5b600360008373ffffffffffffffffffffffffffffffffffffffff1673ffffffffffffffffffffffffffffffffffffffff168152602001908152602001600020549050919050565b606060006114a3336113df565b905060008167ffffffffffffffff8111156114c1576114c06138e8565b5b6040519080825280602002602001820160405280156114fa57816020015b6114e7613385565b8152602001906001900390816114df5790505b50905060005b828110156115f15760006115143383610dab565b90506000600d600083815260200190815260200160002090508060405180608001604052908160008201548152602001600182015481526020016002820160009054906101000a900473ffffffffffffffffffffffffffffffffffffffff1673ffffffffffffffffffffffffffffffffffffffff1673ffffffffffffffffffffffffffffffffffffffff1681526020016002820160149054906101000a900460ff1615151515815250508484815181106115d1576115d061420f565b5b6020026020010181905250505080806115e9906142a1565b915050611500565b50809250505090565b6116026120b4565b61160c6000612132565b565b611617816121f8565b50565b6116226120b4565b60008111611665576040517f08c379a000000000000000000000000000000000000000000000000000000000815260040161165c90614486565b60405180910390fd5b8060088190555050565b6000600760009054906101000a900473ffffffffffffffffffffffffffffffffffffffff16905090565b6060600180546116a890613d54565b80601f01602080910402602001604051908101604052809291908181526020018280546116d490613d54565b80156117215780601f106116f657610100808354040283529160200191611721565b820191906000526020600020905b81548152906001019060200180831161170457829003601f168201915b5050505050905090565b61173d611736611ba8565b838361224b565b5050565b61175261174c611ba8565b83611c7f565b611791576040517f08c379a0000000000000000000000000000000000000000000000000000000008152600401611788906140ab565b60405180910390fd5b61179d848484846123b7565b50505050565b60006117ae836111fa565b156117ee576040517f08c379a00000000000000000000000000000000000000000000000000000000081526004016117e5906144f2565b60405180910390fd5b6008543414611832576040517f08c379a000000000000000000000000000000000000000000000000000000000815260040161182990614584565b60405180910390fd5b61183c600b611c69565b611846600a611c69565b6000611852600b612069565b905061185e3382612413565b6118688185612431565b611872818461249e565b6001600c856040516118849190614325565b908152602001604051809103902060006101000a81548160ff0219169083151502179055508091505092915050565b60085481565b60606118c482611b5d565b60006006600084815260200190815260200160002080546118e490613d54565b80601f016020809104026020016040519081016040528092919081815260200182805461191090613d54565b801561195d5780601f106119325761010080835404028352916020019161195d565b820191906000526020600020905b81548152906001019060200180831161194057829003601f168201915b50505050509050600061196e6125ee565b905060008151036119835781925050506119c6565b6000825111156119b85780826040516020016119a09291906145a4565b604051602081830303815290604052925050506119c6565b6119c184612605565b925050505b919050565b60006119d7600a612069565b905090565b6000600560008473ffffffffffffffffffffffffffffffffffffffff1673ffffffffffffffffffffffffffffffffffffffff16815260200190815260200160002060008373ffffffffffffffffffffffffffffffffffffffff1673ffffffffffffffffffffffffffffffffffffffff16815260200190815260200160002060009054906101000a900460ff16905092915050565b611a786120b4565b600073ffffffffffffffffffffffffffffffffffffffff168173ffffffffffffffffffffffffffffffffffffffff1603611ae7576040517f08c379a0000000000000000000000000000000000000000000000000000000008152600401611ade9061463a565b60405180910390fd5b611af081612132565b50565b60007f01ffc9a7000000000000000000000000000000000000000000000000000000007bffffffffffffffffffffffffffffffffffffffffffffffffffffffff1916827bffffffffffffffffffffffffffffffffffffffffffffffffffffffff1916149050919050565b611b668161266d565b611ba5576040517f08c379a0000000000000000000000000000000000000000000000000000000008152600401611b9c90614388565b60405180910390fd5b50565b600033905090565b816004600083815260200190815260200160002060006101000a81548173ffffffffffffffffffffffffffffffffffffffff021916908373ffffffffffffffffffffffffffffffffffffffff160217905550808273ffffffffffffffffffffffffffffffffffffffff16611c23836112a7565b73ffffffffffffffffffffffffffffffffffffffff167f8c5be1e5ebec7d5bd14f71427d1e84f3dd0314c0f7b2291e5b200ac8c7c3b92560405160405180910390a45050565b6001816000016000828254019250508190555050565b600080611c8b836112a7565b90508073ffffffffffffffffffffffffffffffffffffffff168473ffffffffffffffffffffffffffffffffffffffff161480611ccd5750611ccc81856119dc565b5b80611d0b57508373ffffffffffffffffffffffffffffffffffffffff16611cf3846108fd565b73ffffffffffffffffffffffffffffffffffffffff16145b91505092915050565b8273ffffffffffffffffffffffffffffffffffffffff16611d34826112a7565b73ffffffffffffffffffffffffffffffffffffffff1614611d8a576040517f08c379a0000000000000000000000000000000000000000000000000000000008152600401611d81906146cc565b60405180910390fd5b600073ffffffffffffffffffffffffffffffffffffffff168273ffffffffffffffffffffffffffffffffffffffff1603611df9576040517f08c379a0000000000000000000000000000000000000000000000000000000008152600401611df09061475e565b60405180910390fd5b611e0683838360016126ae565b8273ffffffffffffffffffffffffffffffffffffffff16611e26826112a7565b73ffffffffffffffffffffffffffffffffffffffff1614611e7c576040517f08c379a0000000000000000000000000000000000000000000000000000000008152600401611e73906146cc565b60405180910390fd5b6004600082815260200190815260200160002060006101000a81549073ffffffffffffffffffffffffffffffffffffffff02191690556001600360008573ffffffffffffffffffffffffffffffffffffffff1673ffffffffffffffffffffffffffffffffffffffff168152602001908152602001600020600082825403925050819055506001600360008473ffffffffffffffffffffffffffffffffffffffff1673ffffffffffffffffffffffffffffffffffffffff16815260200190815260200160002060008282540192505081905550816002600083815260200190815260200160002060006101000a81548173ffffffffffffffffffffffffffffffffffffffff021916908373ffffffffffffffffffffffffffffffffffffffff160217905550808273ffffffffffffffffffffffffffffffffffffffff168473ffffffffffffffffffffffffffffffffffffffff167fddf252ad1be2c89b69c2b068fc378daa952ba7f163c4a11628f55a4df523b3ef60405160405180910390a461200883838360016127c2565b505050565b60008160000154905060008111612059576040517f08c379a0000000000000000000000000000000000000000000000000000000008152600401612050906147ca565b60405180910390fd5b6001810382600001819055505050565b600081600001549050919050565b60006002600083815260200190815260200160002060009054906101000a900473ffffffffffffffffffffffffffffffffffffffff169050919050565b6120bc611ba8565b73ffffffffffffffffffffffffffffffffffffffff166120da61166f565b73ffffffffffffffffffffffffffffffffffffffff1614612130576040517f08c379a000000000000000000000000000000000000000000000000000000000815260040161212790614836565b60405180910390fd5b565b6000600760009054906101000a900473ffffffffffffffffffffffffffffffffffffffff16905081600760006101000a81548173ffffffffffffffffffffffffffffffffffffffff021916908373ffffffffffffffffffffffffffffffffffffffff1602179055508173ffffffffffffffffffffffffffffffffffffffff168173ffffffffffffffffffffffffffffffffffffffff167f8be0079c531659141344cd1fd0a4f28419497f9722a3daafe3b4186f6b6457e060405160405180910390a35050565b612201816127c8565b600060066000838152602001908152602001600020805461222190613d54565b9050146122485760066000828152602001908152602001600020600061224791906133c5565b5b50565b8173ffffffffffffffffffffffffffffffffffffffff168373ffffffffffffffffffffffffffffffffffffffff16036122b9576040517f08c379a00000000000000000000000000000000000000000000000000000000081526004016122b0906148a2565b60405180910390fd5b80600560008573ffffffffffffffffffffffffffffffffffffffff1673ffffffffffffffffffffffffffffffffffffffff16815260200190815260200160002060008473ffffffffffffffffffffffffffffffffffffffff1673ffffffffffffffffffffffffffffffffffffffff16815260200190815260200160002060006101000a81548160ff0219169083151502179055508173ffffffffffffffffffffffffffffffffffffffff168373ffffffffffffffffffffffffffffffffffffffff167f17307eab39ab6107e8899845ad3d59bd9653f200f220920489ca2b5937696c31836040516123aa91906134d6565b60405180910390a3505050565b6123c2848484611d14565b6123ce84848484612916565b61240d576040517f08c379a000000000000000000000000000000000000000000000000000000000815260040161240490614934565b60405180910390fd5b50505050565b61242d828260405180602001604052806000815250612a9d565b5050565b61243a8261266d565b612479576040517f08c379a0000000000000000000000000000000000000000000000000000000008152600401612470906149c6565b60405180910390fd5b806006600084815260200190815260200160002090816124999190614b92565b505050565b600081116124e1576040517f08c379a00000000000000000000000000000000000000000000000000000000081526004016124d890614cb0565b60405180910390fd5b60405180608001604052808381526020018281526020013373ffffffffffffffffffffffffffffffffffffffff16815260200160011515815250600d6000848152602001908152602001600020600082015181600001556020820151816001015560408201518160020160006101000a81548173ffffffffffffffffffffffffffffffffffffffff021916908373ffffffffffffffffffffffffffffffffffffffff16021790555060608201518160020160146101000a81548160ff0219169083151502179055509050507f470031062672bc0246e132c723a729c4676710ec663a29e86c88678032daddea82823360016040516125e29493929190614cd0565b60405180910390a15050565b606060405180602001604052806000815250905090565b606061261082611b5d565b600061261a6125ee565b9050600081511161263a5760405180602001604052806000815250612665565b8061264484612af8565b6040516020016126559291906145a4565b6040516020818303038152906040525b915050919050565b60008073ffffffffffffffffffffffffffffffffffffffff1661268f83612077565b73ffffffffffffffffffffffffffffffffffffffff1614159050919050565b6126ba84848484612bc6565b600073ffffffffffffffffffffffffffffffffffffffff168473ffffffffffffffffffffffffffffffffffffffff16036126fc576126f782612cec565b61273b565b8273ffffffffffffffffffffffffffffffffffffffff168473ffffffffffffffffffffffffffffffffffffffff161461273a576127398483612d35565b5b5b600073ffffffffffffffffffffffffffffffffffffffff168373ffffffffffffffffffffffffffffffffffffffff160361277d5761277882612ea2565b6127bc565b8373ffffffffffffffffffffffffffffffffffffffff168373ffffffffffffffffffffffffffffffffffffffff16146127bb576127ba8383612f73565b5b5b50505050565b50505050565b60006127d3826112a7565b90506127e38160008460016126ae565b6127ec826112a7565b90506004600083815260200190815260200160002060006101000a81549073ffffffffffffffffffffffffffffffffffffffff02191690556001600360008373ffffffffffffffffffffffffffffffffffffffff1673ffffffffffffffffffffffffffffffffffffffff168152602001908152602001600020600082825403925050819055506002600083815260200190815260200160002060006101000a81549073ffffffffffffffffffffffffffffffffffffffff021916905581600073ffffffffffffffffffffffffffffffffffffffff168273ffffffffffffffffffffffffffffffffffffffff167fddf252ad1be2c89b69c2b068fc378daa952ba7f163c4a11628f55a4df523b3ef60405160405180910390a46129128160008460016127c2565b5050565b60006129378473ffffffffffffffffffffffffffffffffffffffff16612ff2565b15612a90578373ffffffffffffffffffffffffffffffffffffffff1663150b7a02612960611ba8565b8786866040518563ffffffff1660e01b81526004016129829493929190614d6a565b6020604051808303816000875af19250505080156129be57506040513d601f19601f820116820180604052508101906129bb9190614dcb565b60015b612a40573d80600081146129ee576040519150601f19603f3d011682016040523d82523d6000602084013e6129f3565b606091505b506000815103612a38576040517f08c379a0000000000000000000000000000000000000000000000000000000008152600401612a2f90614934565b60405180910390fd5b805181602001fd5b63150b7a0260e01b7bffffffffffffffffffffffffffffffffffffffffffffffffffffffff1916817bffffffffffffffffffffffffffffffffffffffffffffffffffffffff191614915050612a95565b600190505b949350505050565b612aa78383613015565b612ab46000848484612916565b612af3576040517f08c379a0000000000000000000000000000000000000000000000000000000008152600401612aea90614934565b60405180910390fd5b505050565b606060006001612b0784613232565b01905060008167ffffffffffffffff811115612b2657612b256138e8565b5b6040519080825280601f01601f191660200182016040528015612b585781602001600182028036833780820191505090505b509050600082602001820190505b600115612bbb578080600190039150507f3031323334353637383961626364656600000000000000000000000000000000600a86061a8153600a8581612baf57612bae614df8565b5b04945060008503612b66575b819350505050919050565b6001811115612ce657600073ffffffffffffffffffffffffffffffffffffffff168473ffffffffffffffffffffffffffffffffffffffff1614612c5a5780600360008673ffffffffffffffffffffffffffffffffffffffff1673ffffffffffffffffffffffffffffffffffffffff1681526020019081526020016000206000828254612c529190614e27565b925050819055505b600073ffffffffffffffffffffffffffffffffffffffff168373ffffffffffffffffffffffffffffffffffffffff1614612ce55780600360008573ffffffffffffffffffffffffffffffffffffffff1673ffffffffffffffffffffffffffffffffffffffff1681526020019081526020016000206000828254612cdd919061426d565b925050819055505b5b50505050565b6009805490506010600083815260200190815260200160002081905550600981908060018154018082558091505060019003906000526020600020016000909190919091505550565b60006001612d42846113df565b612d4c9190614e27565b90506000600f6000848152602001908152602001600020549050818114612e31576000600e60008673ffffffffffffffffffffffffffffffffffffffff1673ffffffffffffffffffffffffffffffffffffffff168152602001908152602001600020600084815260200190815260200160002054905080600e60008773ffffffffffffffffffffffffffffffffffffffff1673ffffffffffffffffffffffffffffffffffffffff16815260200190815260200160002060008481526020019081526020016000208190555081600f600083815260200190815260200160002081905550505b600f600084815260200190815260200160002060009055600e60008573ffffffffffffffffffffffffffffffffffffffff1673ffffffffffffffffffffffffffffffffffffffff16815260200190815260200160002060008381526020019081526020016000206000905550505050565b60006001600980549050612eb69190614e27565b9050600060106000848152602001908152602001600020549050600060098381548110612ee657612ee561420f565b5b906000526020600020015490508060098381548110612f0857612f0761420f565b5b906000526020600020018190555081601060008381526020019081526020016000208190555060106000858152602001908152602001600020600090556009805480612f5757612f56614e5b565b5b6001900381819060005260206000200160009055905550505050565b6000612f7e836113df565b905081600e60008573ffffffffffffffffffffffffffffffffffffffff1673ffffffffffffffffffffffffffffffffffffffff16815260200190815260200160002060008381526020019081526020016000208190555080600f600084815260200190815260200160002081905550505050565b6000808273ffffffffffffffffffffffffffffffffffffffff163b119050919050565b600073ffffffffffffffffffffffffffffffffffffffff168273ffffffffffffffffffffffffffffffffffffffff1603613084576040517f08c379a000000000000000000000000000000000000000000000000000000000815260040161307b90614ed6565b60405180910390fd5b61308d8161266d565b156130cd576040517f08c379a00000000000000000000000000000000000000000000000000000000081526004016130c490614f42565b60405180910390fd5b6130db6000838360016126ae565b6130e48161266d565b15613124576040517f08c379a000000000000000000000000000000000000000000000000000000000815260040161311b90614f42565b60405180910390fd5b6001600360008473ffffffffffffffffffffffffffffffffffffffff1673ffffffffffffffffffffffffffffffffffffffff16815260200190815260200160002060008282540192505081905550816002600083815260200190815260200160002060006101000a81548173ffffffffffffffffffffffffffffffffffffffff021916908373ffffffffffffffffffffffffffffffffffffffff160217905550808273ffffffffffffffffffffffffffffffffffffffff16600073ffffffffffffffffffffffffffffffffffffffff167fddf252ad1be2c89b69c2b068fc378daa952ba7f163c4a11628f55a4df523b3ef60405160405180910390a461322e6000838360016127c2565b5050565b600080600090507a184f03e93ff9f4daa797ed6e38ed64bf6a1f0100000000000000008310613290577a184f03e93ff9f4daa797ed6e38ed64bf6a1f010000000000000000838161328657613285614df8565b5b0492506040810190505b6d04ee2d6d415b85acef810000000083106132cd576d04ee2d6d415b85acef810000000083816132c3576132c2614df8565b5b0492506020810190505b662386f26fc1000083106132fc57662386f26fc1000083816132f2576132f1614df8565b5b0492506010810190505b6305f5e1008310613325576305f5e100838161331b5761331a614df8565b5b0492506008810190505b612710831061334a5761271083816133405761333f614df8565b5b0492506004810190505b6064831061336d576064838161336357613362614df8565b5b0492506002810190505b600a831061337c576001810190505b80915050919050565b60405180608001604052806000815260200160008152602001600073ffffffffffffffffffffffffffffffffffffffff1681526020016000151581525090565b5080546133d190613d54565b6000825580601f106133e35750613402565b601f0160209004906000526020600020908101906134019190613405565b5b50565b5b8082111561341e576000816000905550600101613406565b5090565b6000604051905090565b600080fd5b600080fd5b60007fffffffff0000000000000000000000000000000000000000000000000000000082169050919050565b61346b81613436565b811461347657600080fd5b50565b60008135905061348881613462565b92915050565b6000602082840312156134a4576134a361342c565b5b60006134b284828501613479565b91505092915050565b60008115159050919050565b6134d0816134bb565b82525050565b60006020820190506134eb60008301846134c7565b92915050565b600081519050919050565b600082825260208201905092915050565b60005b8381101561352b578082015181840152602081019050613510565b60008484015250505050565b6000601f19601f8301169050919050565b6000613553826134f1565b61355d81856134fc565b935061356d81856020860161350d565b61357681613537565b840191505092915050565b6000602082019050818103600083015261359b8184613548565b905092915050565b6000819050919050565b6135b6816135a3565b81146135c157600080fd5b50565b6000813590506135d3816135ad565b92915050565b6000602082840312156135ef576135ee61342c565b5b60006135fd848285016135c4565b91505092915050565b600073ffffffffffffffffffffffffffffffffffffffff82169050919050565b600061363182613606565b9050919050565b61364181613626565b82525050565b600060208201905061365c6000830184613638565b92915050565b61366b81613626565b811461367657600080fd5b50565b60008135905061368881613662565b92915050565b600080604083850312156136a5576136a461342c565b5b60006136b385828601613679565b92505060206136c4858286016135c4565b9150509250929050565b6136d7816135a3565b82525050565b60006020820190506136f260008301846136ce565b92915050565b6000806040838503121561370f5761370e61342c565b5b600061371d858286016135c4565b925050602061372e858286016135c4565b9150509250929050565b6000806000606084860312156137515761375061342c565b5b600061375f86828701613679565b935050602061377086828701613679565b9250506040613781868287016135c4565b9150509250925092565b600081519050919050565b600082825260208201905092915050565b6000819050602082019050919050565b6137c0816135a3565b82525050565b6137cf81613626565b82525050565b6137de816134bb565b82525050565b6080820160008201516137fa60008501826137b7565b50602082015161380d60208501826137b7565b50604082015161382060408501826137c6565b50606082015161383360608501826137d5565b50505050565b600061384583836137e4565b60808301905092915050565b6000602082019050919050565b60006138698261378b565b6138738185613796565b935061387e836137a7565b8060005b838110156138af5781516138968882613839565b97506138a183613851565b925050600181019050613882565b5085935050505092915050565b600060208201905081810360008301526138d6818461385e565b905092915050565b600080fd5b600080fd5b7f4e487b7100000000000000000000000000000000000000000000000000000000600052604160045260246000fd5b61392082613537565b810181811067ffffffffffffffff8211171561393f5761393e6138e8565b5b80604052505050565b6000613952613422565b905061395e8282613917565b919050565b600067ffffffffffffffff82111561397e5761397d6138e8565b5b61398782613537565b9050602081019050919050565b82818337600083830152505050565b60006139b66139b184613963565b613948565b9050828152602081018484840111156139d2576139d16138e3565b5b6139dd848285613994565b509392505050565b600082601f8301126139fa576139f96138de565b5b8135613a0a8482602086016139a3565b91505092915050565b600060208284031215613a2957613a2861342c565b5b600082013567ffffffffffffffff811115613a4757613a46613431565b5b613a53848285016139e5565b91505092915050565b608082016000820151613a7260008501826137b7565b506020820151613a8560208501826137b7565b506040820151613a9860408501826137c6565b506060820151613aab60608501826137d5565b50505050565b6000608082019050613ac66000830184613a5c565b92915050565b600060208284031215613ae257613ae161342c565b5b6000613af084828501613679565b91505092915050565b613b02816134bb565b8114613b0d57600080fd5b50565b600081359050613b1f81613af9565b92915050565b60008060408385031215613b3c57613b3b61342c565b5b6000613b4a85828601613679565b9250506020613b5b85828601613b10565b9150509250929050565b600067ffffffffffffffff821115613b8057613b7f6138e8565b5b613b8982613537565b9050602081019050919050565b6000613ba9613ba484613b65565b613948565b905082815260208101848484011115613bc557613bc46138e3565b5b613bd0848285613994565b509392505050565b600082601f830112613bed57613bec6138de565b5b8135613bfd848260208601613b96565b91505092915050565b60008060008060808587031215613c2057613c1f61342c565b5b6000613c2e87828801613679565b9450506020613c3f87828801613679565b9350506040613c50878288016135c4565b925050606085013567ffffffffffffffff811115613c7157613c70613431565b5b613c7d87828801613bd8565b91505092959194509250565b60008060408385031215613ca057613c9f61342c565b5b600083013567ffffffffffffffff811115613cbe57613cbd613431565b5b613cca858286016139e5565b9250506020613cdb858286016135c4565b9150509250929050565b60008060408385031215613cfc57613cfb61342c565b5b6000613d0a85828601613679565b9250506020613d1b85828601613679565b9150509250929050565b7f4e487b7100000000000000000000000000000000000000000000000000000000600052602260045260246000fd5b60006002820490506001821680613d6c57607f821691505b602082108103613d7f57613d7e613d25565b5b50919050565b7f4552433732313a20617070726f76616c20746f2063757272656e74206f776e6560008201527f7200000000000000000000000000000000000000000000000000000000000000602082015250565b6000613de16021836134fc565b9150613dec82613d85565b604082019050919050565b60006020820190508181036000830152613e1081613dd4565b9050919050565b7f4552433732313a20617070726f76652063616c6c6572206973206e6f7420746f60008201527f6b656e206f776e6572206f7220617070726f76656420666f7220616c6c000000602082015250565b6000613e73603d836134fc565b9150613e7e82613e17565b604082019050919050565b60006020820190508181036000830152613ea281613e66565b9050919050565b7f4e6f2065726573206475656e6f2064652065737465204e465400000000000000600082015250565b6000613edf6019836134fc565b9150613eea82613ea9565b602082019050919050565b60006020820190508181036000830152613f0e81613ed2565b9050919050565b7f45737465206974656d20796120736520656e6375656e74726120656e2076656e60008201527f7461000000000000000000000000000000000000000000000000000000000000602082015250565b6000613f716022836134fc565b9150613f7c82613f15565b604082019050919050565b60006020820190508181036000830152613fa081613f64565b9050919050565b7f50726563696f20646562652073657220696775616c20616c2070726563696f2060008201527f6c69737461646f00000000000000000000000000000000000000000000000000602082015250565b60006140036027836134fc565b915061400e82613fa7565b604082019050919050565b6000602082019050818103600083015261403281613ff6565b9050919050565b7f4552433732313a2063616c6c6572206973206e6f7420746f6b656e206f776e6560008201527f72206f7220617070726f76656400000000000000000000000000000000000000602082015250565b6000614095602d836134fc565b91506140a082614039565b604082019050919050565b600060208201905081810360008301526140c481614088565b9050919050565b7f596120706f736565732065737465204e46540000000000000000000000000000600082015250565b60006141016012836134fc565b915061410c826140cb565b602082019050919050565b60006020820190508181036000830152614130816140f4565b9050919050565b7f456c2070726563696f20657320696e636f72726563746f000000000000000000600082015250565b600061416d6017836134fc565b915061417882614137565b602082019050919050565b6000602082019050818103600083015261419c81614160565b9050919050565b7f496e646578206f7574206f6620626f756e647300000000000000000000000000600082015250565b60006141d96013836134fc565b91506141e4826141a3565b602082019050919050565b60006020820190508181036000830152614208816141cc565b9050919050565b7f4e487b7100000000000000000000000000000000000000000000000000000000600052603260045260246000fd5b7f4e487b7100000000000000000000000000000000000000000000000000000000600052601160045260246000fd5b6000614278826135a3565b9150614283836135a3565b925082820190508082111561429b5761429a61423e565b5b92915050565b60006142ac826135a3565b91507fffffffffffffffffffffffffffffffffffffffffffffffffffffffffffffffff82036142de576142dd61423e565b5b600182019050919050565b600081905092915050565b60006142ff826134f1565b61430981856142e9565b935061431981856020860161350d565b80840191505092915050565b600061433182846142f4565b915081905092915050565b7f4552433732313a20696e76616c696420746f6b656e2049440000000000000000600082015250565b60006143726018836134fc565b915061437d8261433c565b602082019050919050565b600060208201905081810360008301526143a181614365565b9050919050565b7f4552433732313a2061646472657373207a65726f206973206e6f74206120766160008201527f6c6964206f776e65720000000000000000000000000000000000000000000000602082015250565b60006144046029836134fc565b915061440f826143a8565b604082019050919050565b60006020820190508181036000830152614433816143f7565b9050919050565b7f50726563696f20646562652073657220616c206d656e6f732031207765690000600082015250565b6000614470601e836134fc565b915061447b8261443a565b602082019050919050565b6000602082019050818103600083015261449f81614463565b9050919050565b7f546f6b656e205552492079612065786973746500000000000000000000000000600082015250565b60006144dc6013836134fc565b91506144e7826144a6565b602082019050919050565b6000602082019050818103600083015261450b816144cf565b9050919050565b7f456c2070726563696f20646562652073657220696775616c20616c207072656360008201527f696f206465206c69737461646f00000000000000000000000000000000000000602082015250565b600061456e602d836134fc565b915061457982614512565b604082019050919050565b6000602082019050818103600083015261459d81614561565b9050919050565b60006145b082856142f4565b91506145bc82846142f4565b91508190509392505050565b7f4f776e61626c653a206e6577206f776e657220697320746865207a65726f206160008201527f6464726573730000000000000000000000000000000000000000000000000000602082015250565b60006146246026836134fc565b915061462f826145c8565b604082019050919050565b6000602082019050818103600083015261465381614617565b9050919050565b7f4552433732313a207472616e736665722066726f6d20696e636f72726563742060008201527f6f776e6572000000000000000000000000000000000000000000000000000000602082015250565b60006146b66025836134fc565b91506146c18261465a565b604082019050919050565b600060208201905081810360008301526146e5816146a9565b9050919050565b7f4552433732313a207472616e7366657220746f20746865207a65726f2061646460008201527f7265737300000000000000000000000000000000000000000000000000000000602082015250565b60006147486024836134fc565b9150614753826146ec565b604082019050919050565b600060208201905081810360008301526147778161473b565b9050919050565b7f436f756e7465723a2064656372656d656e74206f766572666c6f770000000000600082015250565b60006147b4601b836134fc565b91506147bf8261477e565b602082019050919050565b600060208201905081810360008301526147e3816147a7565b9050919050565b7f4f776e61626c653a2063616c6c6572206973206e6f7420746865206f776e6572600082015250565b60006148206020836134fc565b915061482b826147ea565b602082019050919050565b6000602082019050818103600083015261484f81614813565b9050919050565b7f4552433732313a20617070726f766520746f2063616c6c657200000000000000600082015250565b600061488c6019836134fc565b915061489782614856565b602082019050919050565b600060208201905081810360008301526148bb8161487f565b9050919050565b7f4552433732313a207472616e7366657220746f206e6f6e20455243373231526560008201527f63656976657220696d706c656d656e7465720000000000000000000000000000602082015250565b600061491e6032836134fc565b9150614929826148c2565b604082019050919050565b6000602082019050818103600083015261494d81614911565b9050919050565b7f45524337323155524953746f726167653a2055524920736574206f66206e6f6e60008201527f6578697374656e7420746f6b656e000000000000000000000000000000000000602082015250565b60006149b0602e836134fc565b91506149bb82614954565b604082019050919050565b600060208201905081810360008301526149df816149a3565b9050919050565b60008190508160005260206000209050919050565b60006020601f8301049050919050565b600082821b905092915050565b600060088302614a487fffffffffffffffffffffffffffffffffffffffffffffffffffffffffffffffff82614a0b565b614a528683614a0b565b95508019841693508086168417925050509392505050565b6000819050919050565b6000614a8f614a8a614a85846135a3565b614a6a565b6135a3565b9050919050565b6000819050919050565b614aa983614a74565b614abd614ab582614a96565b848454614a18565b825550505050565b600090565b614ad2614ac5565b614add818484614aa0565b505050565b5b81811015614b0157614af6600082614aca565b600181019050614ae3565b5050565b601f821115614b4657614b17816149e6565b614b20846149fb565b81016020851015614b2f578190505b614b43614b3b856149fb565b830182614ae2565b50505b505050565b600082821c905092915050565b6000614b6960001984600802614b4b565b1980831691505092915050565b6000614b828383614b58565b9150826002028217905092915050565b614b9b826134f1565b67ffffffffffffffff811115614bb457614bb36138e8565b5b614bbe8254613d54565b614bc9828285614b05565b600060209050601f831160018114614bfc5760008415614bea578287015190505b614bf48582614b76565b865550614c5c565b601f198416614c0a866149e6565b60005b82811015614c3257848901518255600182019150602085019450602081019050614c0d565b86831015614c4f5784890151614c4b601f891682614b58565b8355505b6001600288020188555050505b505050505050565b7f456c2070726563696f206465626520736572206d61796f722071756520300000600082015250565b6000614c9a601e836134fc565b9150614ca582614c64565b602082019050919050565b60006020820190508181036000830152614cc981614c8d565b9050919050565b6000608082019050614ce560008301876136ce565b614cf260208301866136ce565b614cff6040830185613638565b614d0c60608301846134c7565b95945050505050565b600081519050919050565b600082825260208201905092915050565b6000614d3c82614d15565b614d468185614d20565b9350614d5681856020860161350d565b614d5f81613537565b840191505092915050565b6000608082019050614d7f6000830187613638565b614d8c6020830186613638565b614d9960408301856136ce565b8181036060830152614dab8184614d31565b905095945050505050565b600081519050614dc581613462565b92915050565b600060208284031215614de157614de061342c565b5b6000614def84828501614db6565b91505092915050565b7f4e487b7100000000000000000000000000000000000000000000000000000000600052601260045260246000fd5b6000614e32826135a3565b9150614e3d836135a3565b9250828203905081811115614e5557614e5461423e565b5b92915050565b7f4e487b7100000000000000000000000000000000000000000000000000000000600052603160045260246000fd5b7f4552433732313a206d696e7420746f20746865207a65726f2061646472657373600082015250565b6000614ec06020836134fc565b9150614ecb82614e8a565b602082019050919050565b60006020820190508181036000830152614eef81614eb3565b9050919050565b7f4552433732313a20746f6b656e20616c7265616479206d696e74656400000000600082015250565b6000614f2c601c836134fc565b9150614f3782614ef6565b602082019050919050565b60006020820190508181036000830152614f5b81614f1f565b905091905056fea26469706673582212209a878751335a6741281b2d763b1535b2cff423e00047c1b27414107b292e62b064736f6c63430008110033",
  "immutableReferences": {},
  "source": "// SPDX-License-Identifier: MIT\r\npragma solidity >=0.4.22 <0.9.0;\r\nimport \"@openzeppelin/contracts/token/ERC721/extensions/ERC721URIStorage.sol\";\r\nimport \"@openzeppelin/contracts/utils/Counters.sol\";\r\nimport \"@openzeppelin/contracts/access/Ownable.sol\";\r\n\r\ncontract NftMarket is ERC721URIStorage, Ownable{\r\n    using Counters for Counters.Counter;\r\n\r\n    //Estructura de nuestro nft\r\n    struct NftItem {\r\n        uint tokenId;\r\n        uint price;\r\n        address creator;\r\n        bool isListed;\r\n    }\r\n    \r\n    uint public listingPrice = 0.025 ether;     //Precio para listar nuestro nft\r\n    uint256[] private _allNfts;                         //Array con todos los NFTs\r\n\r\n    Counters.Counter private _listedItems;      //Cuantos NFTs hay\r\n    Counters.Counter private _tokenIds;\r\n\r\n    // Mappings\r\n    mapping( string => bool) private _usedTokenURIs;\r\n    mapping( uint => NftItem) private _idToNftItem;\r\n    mapping(address => mapping(uint => uint)) private _ownedTokens;\r\n    mapping(uint => uint) private _idToOwnedIndex;\r\n    mapping(uint => uint) private _idToNftIndex;    //Mapea el id del NFT al indice en el array que ocupa\r\n\r\n    event NftItemCreated (\r\n        uint tokenId,\r\n        uint price,\r\n        address crator,\r\n        bool isListed\r\n    );\r\n\r\n    //CONSTRUCTOR\r\n    constructor() ERC721(\"CreaturesNFT\", \"CNFT\"){}\r\n\r\n    // ------------------ FUNCIONES PUBLICAS ------------------\r\n     function setListingPrice(uint newPrice) external onlyOwner {\r\n        require(newPrice > 0, \"Precio debe ser al menos 1 wei\");\r\n        listingPrice = newPrice;\r\n    }\r\n\r\n    function getNftItem( uint tokenId ) public view returns (NftItem memory) {\r\n        return _idToNftItem[tokenId];\r\n    }\r\n\r\n    function listedItemsCount() public view returns (uint) {\r\n        return _listedItems.current();\r\n    }\r\n\r\n    function tokenURIExists( string memory tokenURI) public view returns (bool) {\r\n        return _usedTokenURIs[tokenURI] == true;\r\n    }\r\n\r\n    function totalSupply() public view returns (uint) {\r\n        return _allNfts.length;\r\n    }\r\n\r\n    function tokenByIndex(uint index) public view returns (uint) {\r\n        require(index < totalSupply(), \"Index out of bounds\");\r\n        return _allNfts[index];\r\n    }\r\n\r\n    function tokenOfOwnerByIndex(address owner, uint index) public view returns (uint) {\r\n        require(index < ERC721.balanceOf(owner), \"Index out of bounds\");\r\n        return _ownedTokens[owner][index];\r\n    }\r\n\r\n    function getAllNftsOfficial() public view returns (NftItem[] memory) {\r\n    uint allItemsCounts = totalSupply();\r\n    uint currentIndex = 0;\r\n    \r\n    NftItem[] memory items = new NftItem[](_listedItems.current());\r\n\r\n        for (uint i = 0; i < allItemsCounts; i++) {\r\n            uint tokenId = tokenByIndex(i);\r\n            address owner = ERC721.ownerOf(tokenId);\r\n            if (owner == address(0x501Af74bDD5F8296EC1367a4E3D7f581c4dedce4)) {\r\n                NftItem storage item = _idToNftItem[tokenId];\r\n\r\n                if (item.isListed == true) {\r\n                    items[currentIndex] = item;\r\n                    currentIndex += 1;\r\n                }\r\n            }\r\n            \r\n        }\r\n\r\n    return items;\r\n    }\r\n\r\n    function getAllNftsOnSale() public view returns (NftItem[] memory) {\r\n    uint allItemsCounts = totalSupply();\r\n    uint currentIndex = 0;\r\n    NftItem[] memory items = new NftItem[](_listedItems.current());\r\n\r\n        for (uint i = 0; i < allItemsCounts; i++) {\r\n        uint tokenId = tokenByIndex(i);\r\n        NftItem storage item = _idToNftItem[tokenId];\r\n\r\n        if (item.isListed == true) {\r\n            items[currentIndex] = item;\r\n            currentIndex += 1;\r\n        }\r\n        }\r\n\r\n    return items;\r\n    }\r\n\r\n    function getOwnedNfts() public view returns (NftItem[] memory) {\r\n        uint ownedItemsCount = ERC721.balanceOf(msg.sender);\r\n        NftItem[] memory items = new NftItem[](ownedItemsCount);\r\n\r\n        for (uint i = 0; i < ownedItemsCount; i++) {\r\n            uint tokenId = tokenOfOwnerByIndex(msg.sender, i);\r\n            NftItem storage item = _idToNftItem[tokenId];\r\n            items[i] = item;\r\n        }\r\n\r\n        return items;\r\n    }\r\n\r\n    function burnToken(uint tokenId) public {\r\n        _burn(tokenId);\r\n    }\r\n\r\n    function mintToken(string memory tokenURI, uint price) public payable returns (uint){   \r\n        //tokenURI es el link al metadata, pinata en nuestro caso --> https://pinata.com/metadata\r\n        //msg.sender es la direccin de nuestra cartera de metamask\r\n        require(!tokenURIExists(tokenURI), \"Token URI ya existe\");\r\n        require(msg.value == listingPrice, \"El precio debe ser igual al precio de listado\");\r\n\r\n        _tokenIds.increment();\r\n        _listedItems.increment();\r\n\r\n        uint newTokenId = _tokenIds.current();\r\n\r\n        _safeMint(msg.sender, newTokenId);      \r\n        _setTokenURI(newTokenId, tokenURI);\r\n        _createNftItem(newTokenId, price);\r\n        _usedTokenURIs[tokenURI] = true;\r\n\r\n        return newTokenId;\r\n    }\r\n\r\n    // Funcion para comprar el nft\r\n    function buyNft( uint tokenId ) public payable {\r\n        uint price = _idToNftItem[tokenId].price;\r\n        address owner = ERC721.ownerOf(tokenId);\r\n\r\n        require(msg.sender != owner, \"Ya posees este NFT\");\r\n        require(msg.value == price, \"El precio es incorrecto\");\r\n\r\n        _idToNftItem[tokenId].isListed = false;\r\n        _listedItems.decrement();\r\n        // Transferir el token desde el owner hacia el que interactua con el programa\r\n        _transfer(owner, msg.sender, tokenId);\r\n        payable(owner).transfer(msg.value);\r\n\r\n    }\r\n\r\n    function placeNftOnSale(uint tokenId, uint newPrice) public payable {\r\n        require(ERC721.ownerOf(tokenId) == msg.sender, \"No eres dueno de este NFT\");\r\n        require(_idToNftItem[tokenId].isListed == false, \"Este item ya se encuentra en venta\");\r\n        require(msg.value == listingPrice, \"Precio debe ser igual al precio listado\");\r\n\r\n        _idToNftItem[tokenId].isListed = true;\r\n        _idToNftItem[tokenId].price = newPrice;\r\n        _listedItems.increment();\r\n    }\r\n\r\n    // ------------------ FUNCIONES PRIVADAS ------------------\r\n    function _createNftItem( uint tokenId, uint price ) private {\r\n        require(price > 0, \"El precio debe ser mayor que 0\");\r\n        \r\n        //Transformamos el idToken a un NftItem con gracias al mapping y struct hechos anteriormente\r\n        _idToNftItem[tokenId] = NftItem(\r\n            tokenId,\r\n            price,\r\n            msg.sender,\r\n            true\r\n        );\r\n\r\n        emit NftItemCreated(tokenId, price, msg.sender, true);  //Emitir el evento\r\n    }\r\n\r\n    function _beforeTokenTransfer(address from, address to, uint tokenId, uint256 nose) internal virtual override  {\r\n        super._beforeTokenTransfer(from, to, tokenId, nose);\r\n\r\n        // minting token\r\n        if (from == address(0)) {\r\n            _addTokenToAllTokensEnumaration(tokenId);\r\n        } else if (from != to) {\r\n            _removeTokenFromOwnerEnumeration(from, tokenId);\r\n        }\r\n\r\n        if (to == address(0)) {\r\n            _removeTokenFromAllTokensEnumeration(tokenId);\r\n        } else if (to != from) {\r\n            _addTokenToOwnerEnumeration(to, tokenId);\r\n        }\r\n    }\r\n\r\n    function _addTokenToAllTokensEnumaration(uint tokenId) private {\r\n        _idToNftIndex[tokenId] = _allNfts.length;\r\n        _allNfts.push(tokenId);\r\n    }\r\n\r\n    function _addTokenToOwnerEnumeration(address to, uint tokenId) private {\r\n        uint length = ERC721.balanceOf(to);\r\n        _ownedTokens[to][length] = tokenId;\r\n        _idToOwnedIndex[tokenId] = length;\r\n  }\r\n\r\n    function _removeTokenFromOwnerEnumeration(address from, uint tokenId) private {\r\n        uint lastTokenIndex = ERC721.balanceOf(from) - 1;\r\n        uint tokenIndex = _idToOwnedIndex[tokenId];\r\n\r\n        if (tokenIndex != lastTokenIndex) {\r\n        uint lastTokenId = _ownedTokens[from][lastTokenIndex];\r\n\r\n        _ownedTokens[from][tokenIndex] = lastTokenId;\r\n        _idToOwnedIndex[lastTokenId] = tokenIndex;\r\n        }\r\n\r\n        delete _idToOwnedIndex[tokenId];\r\n        delete _ownedTokens[from][lastTokenIndex];\r\n    }\r\n\r\n    function _removeTokenFromAllTokensEnumeration(uint tokenId) private {\r\n        uint lastTokenIndex = _allNfts.length - 1;\r\n        uint tokenIndex = _idToNftIndex[tokenId];\r\n        uint lastTokenId = _allNfts[lastTokenIndex];\r\n\r\n        _allNfts[tokenIndex] = lastTokenId;\r\n        _idToNftIndex[lastTokenId] = tokenIndex;\r\n\r\n        delete _idToNftIndex[tokenId];\r\n        _allNfts.pop();\r\n    }\r\n    \r\n}",
  "sourcePath": "C:\\Users\\jose9\\Desktop\\nft-marketplace\\contracts\\NftMarket.sol",
  "compiler": {
    "name": "solc",
    "version": "0.8.17+commit.8df45f5f.Emscripten.clang"
  },
  "schemaVersion": "3.4.12",
  "updatedAt": "2023-03-14T11:18:23.019Z",
  "devdoc": {
    "kind": "dev",
    "methods": {
      "approve(address,uint256)": {
        "details": "See {IERC721-approve}."
      },
      "balanceOf(address)": {
        "details": "See {IERC721-balanceOf}."
      },
      "getApproved(uint256)": {
        "details": "See {IERC721-getApproved}."
      },
      "isApprovedForAll(address,address)": {
        "details": "See {IERC721-isApprovedForAll}."
      },
      "name()": {
        "details": "See {IERC721Metadata-name}."
      },
      "owner()": {
        "details": "Returns the address of the current owner."
      },
      "ownerOf(uint256)": {
        "details": "See {IERC721-ownerOf}."
      },
      "renounceOwnership()": {
        "details": "Leaves the contract without owner. It will not be possible to call `onlyOwner` functions anymore. Can only be called by the current owner. NOTE: Renouncing ownership will leave the contract without an owner, thereby removing any functionality that is only available to the owner."
      },
      "safeTransferFrom(address,address,uint256)": {
        "details": "See {IERC721-safeTransferFrom}."
      },
      "safeTransferFrom(address,address,uint256,bytes)": {
        "details": "See {IERC721-safeTransferFrom}."
      },
      "setApprovalForAll(address,bool)": {
        "details": "See {IERC721-setApprovalForAll}."
      },
      "supportsInterface(bytes4)": {
        "details": "See {IERC165-supportsInterface}."
      },
      "symbol()": {
        "details": "See {IERC721Metadata-symbol}."
      },
      "tokenURI(uint256)": {
        "details": "See {IERC721Metadata-tokenURI}."
      },
      "transferFrom(address,address,uint256)": {
        "details": "See {IERC721-transferFrom}."
      },
      "transferOwnership(address)": {
        "details": "Transfers ownership of the contract to a new account (`newOwner`). Can only be called by the current owner."
      }
    },
    "version": 1
  },
  "userdoc": {
    "kind": "user",
    "methods": {},
    "version": 1
  }
}